:100000000C945D000C9485000C9485000C94850084
:100010000C9485000C9485000C9485000C9485004C
:100020000C9485000C9485000C9485000C9485003C
:100030000C9485000C9485000C9485000C9485002C
:100040000C9480040C9485000C944E040C942804A9
:100050000C9485000C9485000C9485000C9485000C
:100060000C9485000C94850000000008000201003B
:100070000003040700000000000000000000000072
:10008000250028002B0000000000240027002A0083
:10009000040404040404040402020202020203032E
:1000A0000303030301020408102040800102040836
:1000B0001020010204081020CA0411241FBECFEF33
:1000C000D8E0DEBFCDBF11E0A0E0B1E0E8E7FDE0A1
:1000D00002C005900D92A032B107D9F721E0A0E24D
:1000E000B1E001C01D92A83CB207E1F710E0CDE5F8
:1000F000D0E004C02197FE010E94AF06CC35D107A5
:10010000C9F70E94FF040C94BA060C94000090E01A
:10011000FC01EC55FF4F2491FC01E057FF4F849107
:10012000882399F090E0880F991FFC01EA57FF4F50
:10013000A591B491FC01E458FF4F859194918FB73C
:10014000F894EC91E22BEC938FBF0895CF92DF925D
:10015000EF92FF920F931F93CF93DF936C017A017D
:100160008B01C0E0D0E0CE15DF0589F0D8016D919C
:100170008D01D601ED91FC910190F081E02DC60139
:100180000995892B11F47E0102C02196ECCFC7019D
:10019000DF91CF911F910F91FF90EF90DF90CF9063
:1001A0000895FC01918D828D981761F0828DDF0199
:1001B000A80FB11D5D968C91928D9F5F9F73928F5A
:1001C00090E008958FEF9FEF0895FC01918D828D4F
:1001D000981731F0828DE80FF11D858D90E008951C
:1001E0008FEF9FEF0895FC01918D228D892F90E074
:1001F000805C9F4F821B91098F739927089589E234
:1002000091E00E94F30021E0892B09F420E0822F85
:100210000895FC01848DDF01A80FB11DA35ABF4FC3
:100220002C91848D90E001968F739927848FA689F5
:10023000B7892C93A089B1898C9180648C93938D1C
:10024000848D981306C00288F389E02D80818F7D0C
:1002500080830895EF92FF920F931F93CF93DF93C4
:10026000EC0181E0888F9B8D8C8D981305C0E88907
:10027000F989808185FD24C0F62E0B8D10E00F5F7B
:100280001F4F0F731127E02E8C8DE8120CC00FB694
:1002900007FCFACFE889F989808185FFF5CFCE0187
:1002A0000E940901F1CF8B8DFE01E80FF11DE35A89
:1002B000FF4FF0820B8FEA89FB898081806207C043
:1002C000EE89FF896083E889F98980818064808371
:1002D00081E090E0DF91CF911F910F91FF90EF901F
:1002E0000895CF93DF93EC01888D8823C9F0EA89C4
:1002F000FB89808185FD05C0A889B9898C9186FD1F
:100300000FC00FB607FCF5CF808185FFF2CFA8891B
:10031000B9898C9185FFEDCFCE010E940901E7CF0D
:10032000DF91CF91089580E090E0892B29F00E9421
:10033000FF0081110C940000089590E0FC01E85941
:10034000FF4F3491FC01EC55FF4F2491FC01E05725
:10035000FF4FE491EE2309F43BC0332339F13330EE
:1003600091F038F43130A9F0323001F584B58F7D49
:1003700012C0373091F03830A1F03430B9F48091A8
:1003800080008F7D03C0809180008F7780938000F4
:100390000DC084B58F7784BD09C08091B0008F7780
:1003A00003C08091B0008F7D8093B000F0E0EE0F2D
:1003B000FF1FE458FF4FA591B4918FB7F894EC91CB
:1003C000611103C020952E2301C02E2B2C938FBFCB
:1003D00008951F93CF93DF93182FEB010E9487009E
:1003E000209711F460E004C0CF3FD10539F461E0FB
:1003F000812FDF91CF911F910C949D01E12FF0E0AF
:10040000E859FF4FE491E330F9F048F4E130B9F0F6
:10041000E230A1F584B5806284BDC8BD34C0E73048
:10042000E9F0E83019F1E43049F58091800080620C
:1004300080938000D0938B00C0938A0024C084B541
:10044000806884BDC7BD1FC0809180008068809394
:100450008000D0938900C093880015C08091B000BF
:1004600080688093B000C093B3000DC08091B0004D
:1004700080628093B000C093B40005C0C038D1053D
:100480000CF0B5CFAFCFDF91CF911F9108953FB75B
:10049000F8948091250190912601A0912701B091B7
:1004A000280126B5A89B05C02F3F19F00196A11D74
:1004B000B11D3FBFBA2FA92F982F8827820F911DFA
:1004C000A11DB11DBC01CD0142E0660F771F881F41
:1004D000991F4A95D1F708958F929F92AF92BF923C
:1004E000CF92DF92EF92FF926B017C010E94470254
:1004F0004B015C01C114D104E104F104F1F00E944C
:100500004702DC01CB0188199909AA09BB09883E79
:100510009340A105B10570F321E0C21AD108E108AA
:10052000F10888EE880E83E0981EA11CB11CC1144E
:10053000D104E104F10419F7DDCFFF90EF90DF90D3
:10054000CF90BF90AF909F908F900895CF93DF93FF
:1005500060E070E089E00E94E901C0910401D0915F
:100560000501BE016F5071098AE00E94E901BE01D8
:100570008BE00E94E9018091000190910101C80F78
:10058000D91FD0930501C09304012091C601309179
:10059000C7012C173D071CF4C83CD1053CF09195D0
:1005A00081959109909301018093000162E370E0CD
:1005B00080E090E0DF91CF910C946C02CF93DF93B9
:1005C000C0910401D0910501BE0189E00E94E901BA
:1005D000BE018AE00E94E901BE01D7FF02C06F5F41
:1005E0007F4F759567958BE00E94E901809100012E
:1005F00090910101C80FD91FD0930501C093040148
:100600002091C6013091C7012C173D071CF4C83C4E
:10061000D1053CF0919581959109909301018093CA
:10062000000162E370E080E090E0DF91CF910C94F4
:100630006C02CF93DF93C0910401D0910501BE01FC
:1006400089E00E94E90160E070E08AE00E94E9012F
:1006500060E070E08BE00E94E901809100019091E0
:100660000101BE01680F791F7093050160930401B9
:100670002091C6013091C701261737071CF4683C4A
:1006800071053CF0919581959109909301018093BA
:10069000000162E370E080E090E0DF91CF910C9484
:1006A0006C02CF93DF93C0910401D0910501BE018C
:1006B0008AE00E94E90160E070E089E00E94E901BF
:1006C00060E070E08BE00E94E90180910001909170
:1006D0000101BE01680F791F709305016093040149
:1006E0002091C6013091C701261737071CF4683CDA
:1006F00071053CF09195819591099093010180934A
:10070000000162E370E080E090E0DF91CF910C9413
:100710006C02EF92FF921F93CF93DF931F92CDB79E
:10072000DEB7162FE0900401F0900501B701498370
:100730000E94E90160E070E0812F0E94E90160E021
:1007400070E04981842F0E94E9018091000190911D
:100750000101B701680F791F7093050160930401CF
:100760002091C6013091C701261737071CF4683C59
:1007700071053CF0919581959109909301018093C9
:1007800000016AE070E080E090E00F90DF91CF918F
:100790001F91FF90EF900C946C02CF93DF93C09168
:1007A0000401D0910501BE018BE00E94E90160E0E7
:1007B00070E089E00E94E90160E070E08AE00E9458
:1007C000E9018091000190910101BE01680F791F3C
:1007D00070930501609304012091C6013091C70117
:1007E000261737071CF4683C71053CF091958195FC
:1007F0009109909301018093000162E370E080E031
:1008000090E0DF91CF910C946C0260E070E08BE09F
:100810000E94E90160E070E089E00E94E90160E087
:1008200070E08AE00C94E901009769F0FC01019006
:100830000020E9F73197AF01481B590BBC0189E251
:1008400091E00C94A60080E090E008950E94B50627
:100850001F920F920FB60F9211242F933F934F9335
:100860005F936F937F938F939F93AF93BF93EF9318
:10087000FF9389E291E00E940901FF91EF91BF91FE
:10088000AF919F918F917F916F915F914F913F9128
:100890002F910F900FBE0F901F9018951F920F92DF
:1008A0000FB60F9211242F938F939F93EF93FF9383
:1008B000E0913901F0913A018081E0913F01F0919E
:1008C000400182FD12C09081809142018F5F8F7341
:1008D00020914301821751F0E0914201F0E0E75D81
:1008E000FE4F958F8093420101C08081FF91EF916F
:1008F0009F918F912F910F900FBE0F901F90189581
:100900001F920F920FB60F9211242F933F938F9344
:100910009F93AF93BF938091210190912201A09169
:100920002301B09124013091200123E0230F2D37C2
:1009300020F40196A11DB11D05C026E8230F0296E3
:10094000A11DB11D209320018093210190932201CC
:10095000A0932301B0932401809125019091260159
:10096000A0912701B09128010196A11DB11D80938E
:10097000250190932601A0932701B0932801BF91F0
:10098000AF919F918F913F912F910F900FBE0F903C
:100990001F901895E9E2F1E01382128288EE93E04D
:1009A000A0E0B0E084839583A683B7838AE091E0DA
:1009B0009183808385EC90E09587848784EC90E038
:1009C0009787868780EC90E0918B808B81EC90E01C
:1009D000938B828B82EC90E0958B848B86EC90E0FD
:1009E000978B868B118E128E138E148E809104013C
:1009F000909105019093C7018093C6010895CF930C
:100A0000DF93CDB7DEB7A1970FB6F894DEBF0FBE68
:100A1000CDBF789484B5826084BD84B5816084BD87
:100A200085B5826085BD85B5816085BD80916E008C
:100A3000816080936E0010928100809181008260BD
:100A400080938100809181008160809381008091FA
:100A500080008160809380008091B10084608093E9
:100A6000B1008091B00081608093B00080917A00E5
:100A7000846080937A0080917A00826080937A000B
:100A800080917A00816080937A0080917A008068FA
:100A900080937A001092C100E0913901F0913A01FF
:100AA00082E08083E0913501F09136011082E0917F
:100AB0003701F09138018FEC808310924101E09171
:100AC0003D01F0913E0186E08083E0913B01F09191
:100AD0003C01808180618083E0913B01F0913C0189
:100AE000808188608083E0913B01F0913C018081AE
:100AF00080688083E0913B01F0913C0180818F7D93
:100B000080838BE00E9487008AE00E94870089E052
:100B10000E9487008AE0882E912CA12CB12C809114
:100B200002019091030185339105C1F1B4F4823340
:100B3000910589F14CF48033910539F1C19709F0A1
:100B400053C00E94CD0350C08333910509F1C4976F
:100B500009F04AC00E94DE0247C08833910591F136
:100B60005CF48633910509F1C797F1F560E08BE0FD
:100B70000E949D0161E01EC08933910569F18937AA
:100B8000910591F50E94A6022FC00E9405042CC079
:100B90000E94510329C00E94190326C04AE050E078
:100BA00069E070E08BE090E01DC061E08BE00E94A6
:100BB0009D0160E08AE00E949D0160E089E00E9462
:100BC0009D0112C060E08BE00E949D0160E08AE020
:100BD0000E949D0161E0F2CF4AE050E06BE070E0DE
:100BE00089E090E00E94890389E291E00E94F3008D
:100BF000892B09F48FC089E291E00E94D100909383
:100C00000301809302018637910509F448C06C0105
:100C1000990FEE08FF08F7FE26C0E0912901F09138
:100C20002A010190F081E02D6DE289E291E00995C1
:100C300022273327A9012C193D094E095F0919A262
:100C40008E010F5D1F4FCA01B901A50194010E94D9
:100C50008D06605DF80162938F0121153105410514
:100C6000510589F715C0A701960119A28E010F5DE4
:100C70001F4FCA01B901A50194010E948D06605D54
:100C8000F80162938F01211531054105510589F75E
:100C9000C8010E94140486E191E00E94140480912E
:100CA0000201909103018333910531F14CF48133BA
:100CB0009105E1F0F4F4C09769F50E9405042AC09B
:100CC00085339105F9F0DCF08637910531F08937ED
:100CD000910501F50E94A6021DC089E191E00E94E4
:100CE000140486E191E00E94140414C00E94CD0314
:100CF00011C00E9419030EC00E9451030BC00E9434
:100D0000DE0208C049E050E06AE070E08BE090E06D
:100D10000E9489030E94930102CFA1E21A2EAA1B0E
:100D2000BB1BFD010DC0AA1FBB1FEE1FFF1FA2179B
:100D3000B307E407F50720F0A21BB30BE40BF50B98
:100D4000661F771F881F991F1A9469F76095709521
:100D5000809590959B01AC01BD01CF010895EE0FE8
:100D6000FF1F0590F491E02D099481E090E0F89444
:080D70000C94BA06F894FFCFC1
:100D7800050001001900000000002A01A600F30088
:100D8800D100E50071010D0A003B312E30363B00E1
:00000001FF
