:100000000C9466000C948E000C948E000C948E0060
:100010000C948E000C948E000C948E000C948E0028
:100020000C948E000C948E000C948E000C948E0018
:100030000C948E000C948E000C948E000C948E0008
:100040000C9445040C948E000C9413040C94ED0352
:100050000C948E000C948E000C948E000C948E00E8
:100060000C948E000C948E0060056305690566058E
:100070006C056F0572057805820500000008000216
:100080000100000304070000000000000000000061
:100090000000250028002B0000000000240027009D
:1000A0002A000404040404040404020202020202FA
:1000B000030303030303010204081020408001022C
:1000C000040810200102040810208F0411241FBE10
:1000D000CFEFD8E0DEBFCDBF11E0A0E0B1E0E4E9B2
:1000E000FCE002C005900D92A032B107D9F721E0E3
:1000F000A0E2B1E001C01D92A83CB207E1F710E018
:10010000C6E6D0E004C02197FE010E943D06C53638
:10011000D107C9F70E94C4040C9448060C9400004F
:1001200090E0FC01EA54FF4F2491FC01EE55FF4F93
:100130008491882399F090E0880F991FFC01E8567C
:10014000FF4FA591B491FC01E257FF4F8591949127
:100150008FB7F894EC91E22BEC938FBF0895CF9278
:10016000DF92EF92FF920F931F93CF93DF936C0177
:100170007A018B01C0E0D0E0CE15DF0589F0D8010F
:100180006D918D01D601ED91FC910190F081E02DF2
:10019000C6010995892B11F47E0102C02196ECCF8E
:1001A000C701DF91CF911F910F91FF90EF90DF90EA
:1001B000CF900895FC01918D828D981761F0828D0A
:1001C000DF01A80FB11D5D968C91928D9F5F9F738B
:1001D000928F90E008958FEF9FEF0895FC01918D2D
:1001E000828D981731F0828DE80FF11D858D90E09A
:1001F00008958FEF9FEF0895FC01918D228D892F37
:1002000090E0805C9F4F821B91098F73992708951E
:1002100089E291E00E94FC0021E0892B09F420E0B2
:10022000822F0895FC01848DDF01A80FB11DA35A10
:10023000BF4F2C91848D90E001968F739927848F06
:10024000A689B7892C93A089B1898C9180648C93FD
:10025000938D848D981306C00288F389E02D8081E8
:100260008F7D80830895EF92FF920F931F93CF931A
:10027000DF93EC0181E0888F9B8D8C8D981305C0F6
:10028000E889F989808185FD24C0F62E0B8D10E068
:100290000F5F1F4F0F731127E02E8C8DE8120CC0DB
:1002A0000FB607FCFACFE889F989808185FFF5CF81
:1002B000CE010E941201F1CF8B8DFE01E80FF11DDE
:1002C000E35AFF4FF0820B8FEA89FB8980818062BD
:1002D00007C0EE89FF896083E889F989808180649D
:1002E000808381E090E0DF91CF911F910F91FF908B
:1002F000EF900895CF93DF93EC01888D8823C9F0A8
:10030000EA89FB89808185FD05C0A889B9898C911E
:1003100086FD0FC00FB607FCF5CF808185FFF2CFB9
:10032000A889B9898C9185FFEDCFCE010E94120179
:10033000E7CFDF91CF91089580E090E0892B29F0FD
:100340000E94080181110C940000089590E0FC01C6
:10035000E658FF4F3491FC01EA54FF4F2491FC0111
:10036000EE55FF4FE491EE2309F43BC0332339F1FE
:10037000333091F038F43130A9F0323001F584B5E2
:100380008F7D12C0373091F03830A1F03430B9F49D
:10039000809180008F7D03C0809180008F77809353
:1003A00080000DC084B58F7784BD09C08091B000F6
:1003B0008F7703C08091B0008F7D8093B000F0E014
:1003C000EE0FFF1FE257FF4FA591B4918FB7F8943E
:1003D000EC91611103C020952E2301C02E2B2C938C
:1003E0008FBF08951F93CF93DF93182FEB010E94C7
:1003F0009000209711F460E004C0CF3FD10539F49C
:1004000061E0812FDF91CF911F910C94A601E12F24
:10041000F0E0E658FF4FE491E330F9F048F4E130C2
:10042000B9F0E230A1F584B5806284BDC8BD34C0A6
:10043000E730E9F0E83019F1E43049F580918000C7
:10044000806280938000D0938B00C0938A0024C088
:1004500084B5806884BDC7BD1FC08091800080685E
:1004600080938000D0938900C093880015C080914C
:10047000B00080688093B000C093B3000DC080913D
:10048000B00080628093B000C093B40005C0C03853
:10049000D1050CF0B5CFAFCFDF91CF911F9108956B
:1004A0003FB7F8948091250190912601A0912701F2
:1004B000B091280126B5A89B05C02F3F19F00196E1
:1004C000A11DB11D3FBFBA2FA92F982F8827820FDA
:1004D000911DA11DB11DBC01CD0142E0660F771F2A
:1004E000881F991F4A95D1F708958F929F92AF92D6
:1004F000BF92CF92DF92EF92FF926B017C010E943C
:1005000050024B015C01C114D104E104F104F1F08B
:100510000E945002DC01CB0188199909AA09BB0984
:10052000883E9340A105B10570F321E0C21AD108BD
:10053000E108F10888EE880E83E0981EA11CB11C2A
:10054000C114D104E104F10419F7DDCFFF90EF905D
:10055000DF90CF90BF90AF909F908F900895CF93F2
:10056000DF93C0910401D0910501BE0189E00E9492
:10057000F201BE018AE00E94F201BE01D7FF02C073
:100580006F5F7F4F759567958BE00E94F2018091B8
:10059000000190910101C80FD91FD0930501C093AC
:1005A00004012091C6013091C7012C173D071CF4AE
:1005B000C83CD1053CF0919581959109909301013A
:1005C0008093000162E370E080E090E0DF91CF91E2
:1005D0000C947502CF93DF93C0910401D091050173
:1005E000BE0189E00E94F20160E070E08AE00E94B2
:1005F000F20160E070E08BE00E94F2018091000166
:1006000090910101BE01680F791F709305016093FD
:1006100004012091C6013091C701261737071CF449
:10062000683C71053CF09195819591099093010189
:100630008093000162E370E080E090E0DF91CF9171
:100640000C947502CF93DF93C0910401D091050102
:10065000BE018AE00E94F20160E070E089E00E9441
:10066000F20160E070E08BE00E94F20180910001F5
:1006700090910101BE01680F791F7093050160938D
:1006800004012091C6013091C701261737071CF4D9
:10069000683C71053CF09195819591099093010119
:1006A0008093000162E370E080E090E0DF91CF9101
:1006B0000C947502CF93DF93C0910401D091050192
:1006C000BE018BE00E94F20160E070E089E00E94D0
:1006D000F20160E070E08AE00E94F2018091000186
:1006E00090910101BE01680F791F7093050160931D
:1006F00004012091C6013091C701261737071CF469
:10070000683C71053CF091958195910990930101A8
:10071000809300016AE070E080E090E0DF91CF918B
:100720000C947502CF93DF93C0910401D091050121
:10073000BE018BE00E94F20160E070E089E00E945F
:10074000F20160E070E08AE00E94F2018091000115
:1007500090910101BE01680F791F709305016093AC
:1007600004012091C6013091C701261737071CF4F8
:10077000683C71053CF09195819591099093010138
:100780008093000162E370E080E090E0DF91CF9120
:100790000C94750260E070E08BE00E94F20160E072
:1007A00070E089E00E94F20160E070E08AE00C9461
:1007B000F201009769F0FC0101900020E9F7319700
:1007C000AF01481B590BBC0189E291E00C94AF00CA
:1007D00080E090E008950E9443061F920F920FB6AA
:1007E0000F9211242F933F934F935F936F937F93B7
:1007F0008F939F93AF93BF93EF93FF9389E291E021
:100800000E941201FF91EF91BF91AF919F918F9143
:100810007F916F915F914F913F912F910F900FBEFC
:100820000F901F9018951F920F920FB60F921124E0
:100830002F938F939F93EF93FF93E0913901F09162
:100840003A018081E0913F01F091400182FD12C0A8
:100850009081809142018F5F8F73209143018217B5
:1008600051F0E0914201F0E0E75DFE4F958F8093FB
:10087000420101C08081FF91EF919F918F912F9153
:100880000F900FBE0F901F9018951F920F920FB6EA
:100890000F9211242F933F938F939F93AF93BF9306
:1008A0008091210190912201A0912301B091240116
:1008B0003091200123E0230F2D3720F40196A11D54
:1008C000B11D05C026E8230F0296A11DB11D20937E
:1008D00020018093210190932201A0932301B093E2
:1008E00024018091250190912601A0912701B091CA
:1008F00028010196A11DB11D809325019093260129
:10090000A0932701B0932801BF91AF919F918F9140
:100910003F912F910F900FBE0F901F901895E9E215
:10092000F1E01382128288EE93E0A0E0B0E08483CD
:100930009583A683B7838AE091E09183808385ECD9
:1009400090E09587848784EC90E09787868780EC99
:1009500090E0918B808B81EC90E0938B828B82EC8A
:1009600090E0958B848B86EC90E0978B868B118E34
:10097000128E138E148E8091040190910501909334
:10098000C7018093C6010895CF93DF93CDB7DEB73B
:10099000A1970FB6F894DEBF0FBECDBF789484B593
:1009A000826084BD84B5816084BD85B5826085BD6B
:1009B00085B5816085BD80916E00816080936E00F9
:1009C00010928100809181008260809381008091EB
:1009D000810081608093810080918000816080939C
:1009E00080008091B10084608093B1008091B0005C
:1009F00081608093B00080917A00846080937A0057
:100A000080917A00826080937A0080917A00816080
:100A100080937A0080917A00806880937A001092A7
:100A2000C100E0913901F0913A0182E08083E091C8
:100A30003501F09136011082E0913701F0913801D3
:100A40008FEC808310924101E0913D01F0913E01D5
:100A500086E08083E0913B01F0913C0180818061E0
:100A60008083E0913B01F0913C018081886080832C
:100A7000E0913B01F0913C01808180688083E091AE
:100A80003B01F0913C0180818F7D80838BE00E944F
:100A900090008AE00E94900089E00E9490008AE025
:100AA000882E912CA12CB12CE0910201F091030130
:100AB000F097E930F10590F5EC5CFF4F0C943D06A2
:100AC0000E94CA032BC00E94920328C00E942203E6
:100AD00025C00E94EA0222C00E94AF021FC00E94ED
:100AE0005A031CC061E08BE00E94A60160E005C0D3
:100AF00060E08BE00E94A60161E08AE00E94A6010E
:100B000060E009C060E08BE00E94A60160E08AE03E
:100B10000E94A60161E089E00E94A60189E291E0BD
:100B20000E94FC00892B09F483C089E291E00E94B5
:100B3000DA0090930301809302018637910509F44E
:100B400048C06C01990FEE08FF08F7FE26C0E0913F
:100B50002901F0912A010190F081E02D6DE289E2F6
:100B600091E0099522273327A9012C193D094E0947
:100B70005F0919A28E010F5D1F4FCA01B901A501BE
:100B800094010E941B06605DF80162938F0121159C
:100B900031054105510589F715C0A701960119A234
:100BA0008E010F5D1F4FCA01B901A50194010E947A
:100BB0001B06605DF80162938F0121153105410527
:100BC000510589F7C8010E94D90386E191E00E948E
:100BD000D90380910201909103018333910501F1C2
:100BE0004CF481339105B1F0C4F4C09709F50E942B
:100BF000CA031EC085339105C9F0ACF08637910554
:100C0000B9F489E191E00E94D90386E191E00E9464
:100C1000D9030EC00E9492030BC00E94EA0208C0D2
:100C20000E94220305C00E94AF0202C00E945A0324
:100C30000E949C0139CFA1E21A2EAA1BBB1BFD0109
:100C40000DC0AA1FBB1FEE1FFF1FA217B307E407AB
:100C5000F50720F0A21BB30BE40BF50B661F771F03
:100C6000881F991F1A9469F76095709580959095E3
:100C70009B01AC01BD01CF010895EE0FFF1F059050
:100C8000F491E02D099481E090E0F8940C944806EA
:040C9000F894FFCF06
:100C9400050001006400000000003301AF00FC0007
:100CA400DA00EE007A010D0A003B312E30313B00B0
:00000001FF
